:1040000031400039B240805A20013F4000000F93F8
:1040100005242F839F4F30420011FB233F40A20015
:104020000F9304241F83CF430011FC2330404E40E4
:104030003040344000132183814F00002F410E4F48
:104040003E53814E00000F93F923215330413140FC
:104050000039B240805A2001B0122A41B012064104
:104060007F407000B012E64043127C4005003D40A6
:10407000DC403E4000040F43B012564143127C40E6
:1040800003003D40AC403E4000020F43B012564199
:1040900043126C423D40D2400E430F4EB012564187
:1040A00032D23150060032C0D000FD3F1F42001115
:1040B0001F53824F00113FF0030006203F5060EA7B
:1040C0000E4F3F530E93FC237F402000B01200415F
:1040D00030417F401000B012004130417F4040002D
:1040E000B01200413041C2DF3200C2DF3100304146
:1040F0004E930324C2CF31003041C2DF3100304142
:10410000C2EF31003041B24004016001B2402000F2
:104110007201B24010006201B2D010006001304163
:104120000F4232C23041024F30417E4009004F4EB3
:104130000F5F0F5F0F5F0F5F3F500211CF4307000C
:10414000CF4306005D4F06007DF38F4D08007E5380
:104150007E93ED2330410B120A12091259410800D7
:104160007C900A0002285F43253C0E9303207F4089
:104170000500203C0A4232C27CF30C5C0C5C0C5CF7
:104180000C5C3C5002111B4C08000B9302246F4343
:10419000103C8C4F00008C4E0200CC4B0700CC4BE7
:1041A00006008C4D0A0079D0400079F38C49080054
:1041B0004F4B024A39413A413B4130417FF30F5F57
:1041C0001F530F5F0F5F0F5F8F4302114F4330414B
:1041D0000F120E120D120C120B120A127A40090065
:1041E0004B4A0B5B0B5B0B5B0B5B3B500211BBB099
:1041F0004000080012242F4B0E4F3E538B4E000000
:104200000F930B201F4B02003F538B4F0000DB53DB
:1042100006009B120A00DB5307004A9302247A53DC
:10422000DF3F3A413B413C413D413E413F4100136C
:10FFE000304030403040304030403040D0413040F0
:10FFF00030403040304030403040304030400040B1
:0400000300004000B9
:00000001FF
